:100000000C942A000C9447000C9447000C94470071
:100010000C9447000C9447000C9447000C94470044
:100020000C9447000C9447000C9447000C94470034
:100030000C9447000C9447000C9447000C94470024
:100040000C9447000C9447000C9447000C94470014
:100050000C94470011241FBECFE5D4E0DEBFCDBF16
:1000600011E0A0E6B0E0E6E0F4E102C005900D92F8
:10007000A635B107D9F711E0A6E5B1E001C01D92A0
:10008000AC3AB107E1F70E945D040C94010A0C94AC
:10009000000090BD89B988E18AB980B5866880BDC5
:1000A00008955D9BFECF8CB98CEC9AE00197F1F737
:1000B00000C0000008955F9BFECF8CB10895CF93E0
:1000C000DF93EC018881882331F021960E94510052
:1000D00089918823D9F7DF91CF910895EF92FF920C
:1000E0000F931F93CF93DF93EC01062F10E00E9434
:1000F0005B00FE01E10FF11D8083801711F01F5F8F
:10010000F6CFFE01E10FF11D10827E018C2F9F2D95
:10011000DF91CF911F910F91FF90EF9008950E9472
:10012000510008950E945B0008950E945F000895A9
:10013000EF92FF920F931F93CF93DF93EC01062F63
:1001400010E00E945B00FE01E10FF11D808380172B
:1001500011F01F5FF6CFFE01E10FF11D10827E014D
:100160008C2F9F2DDF91CF911F910F91FF90EF90DA
:1001700008956115710509F0A0C0009711F4D89891
:1001800008958130910511F4D99808958230910530
:1001900011F4DA9808958330910511F4DB980895ED
:1001A0008430910511F4DC9808958530910511F49F
:1001B000DD9808958630910511F4DE980895873012
:1001C000910511F4DF9808958A30910511F4C098D3
:1001D00008958B30910511F4C19808958C309105E4
:1001E00011F4C29808958D30910511F4C3980895C3
:1001F0008E30910511F4C49808958F30910511F453
:10020000C59808958031910511F4C69808958131FB
:10021000910511F4C79808958431910511F4A898B7
:1002200008958531910511F4A998089586319105B5
:1002300011F4AA9808958731910511F4AB980895A7
:100240008831910511F4AC9808958931910511F424
:10025000AD9808958A31910511F4AE9808958B31C7
:10026000910511F4AF9808958E31910511F490988D
:1002700008958F31910511F4919808958032910578
:1002800011F4929808958132910511F4939808958C
:100290008232910511F4949808958332910511F4F6
:1002A000959808958432910511F4969808958532B1
:1002B000910509F0A0C097980895009711F4D89A75
:1002C00008958130910511F4D99A089582309105ED
:1002D00011F4DA9A08958330910511F4DB9A0895A8
:1002E0008430910511F4DC9A08958530910511F45C
:1002F000DD9A08958630910511F4DE9A08958730CD
:10030000910511F4DF9A08958A30910511F4C09A8D
:1003100008958B30910511F4C19A08958C309105A0
:1003200011F4C29A08958D30910511F4C39A08957D
:100330008E30910511F4C49A08958F30910511F40F
:10034000C59A08958031910511F4C69A08958131B6
:10035000910511F4C79A08958431910511F4A89A72
:1003600008958531910511F4A99A08958631910572
:1003700011F4AA9A08958731910511F4AB9A089562
:100380008831910511F4AC9A08958931910511F4E1
:10039000AD9A08958A31910511F4AE9A08958B3182
:1003A000910511F4AF9A08958E31910511F4909A48
:1003B00008958F31910511F4919A08958032910535
:1003C00011F4929A08958132910511F4939A089547
:1003D0008232910511F4949A08958332910511F4B3
:1003E000959A08958432910511F4969A089585326C
:1003F000910509F4979A08950F931F93082F182FCA
:1004000080FF07C080E090E061E070E00E94B900EA
:1004100006C080E090E060E070E00E94B90011FF4B
:1004200007C081E090E061E070E00E94B90006C082
:1004300081E090E060E070E00E94B90012FF07C028
:1004400082E090E061E070E00E94B90006C082E0C6
:1004500090E060E070E00E94B90013FF07C083E005
:1004600090E061E070E00E94B90006C083E090E097
:1004700060E070E00E94B90014FF07C08EE090E0D9
:1004800061E070E00E94B90006C08EE090E060E09C
:1004900070E00E94B90015FF07C08FE090E061E0B6
:1004A00070E00E94B90006C08FE090E060E070E06C
:1004B0000E94B90016FF07C080E190E061E070E0A3
:1004C0000E94B90006C080E190E060E070E00E9408
:1004D000B90000233CF481E190E061E070E00E940B
:1004E000B90006C081E190E060E070E00E94B900D0
:1004F0001F910F9108951F93182F8AE090E060E0FC
:1005000070E00E94B900812F0E94FC018CE090E015
:1005100061E070E00E94B9008CEC9AE00197F1F77D
:1005200000C000008CE090E060E070E00E94B90044
:100530008CEC9AE00197F1F700C000001F9108953C
:1005400081E00E947B020895813029F4862F805833
:100550000E947B020895823021F4862F80540E94ED
:100560007B0208958AE090E060E070E00E94B900AC
:100570008CE090E060E070E00E94B9008FEF97EDB2
:100580000197F1F700C0000080E30E947B028FEF2B
:1005900095E30197F1F700C0000080E30E947B0221
:1005A0008CEC9AE00197F1F700C0000080E30E9414
:1005B0007B028FEF9BE60197F1F700C0000088E314
:1005C0000E947B028CE00E947B0281E00E947B0201
:1005D00086E00E947B0208951F93182F8AE090E026
:1005E00061E070E00E94B900812F0E94FC018CE064
:1005F00090E061E070E00E94B9008CEC9AE0019715
:10060000F1F700C000008CE090E060E070E00E9434
:10061000B9008CEC9AE00197F1F700C000001F913F
:100620000895CF93DF93EC018881882331F02196E0
:100630000E94EC0289918823D9F7DF91CF91089528
:100640008CE10E947B02089588E10E947B0208955C
:10065000CF93DF93C82FD0E0CE0180FF07C08EE09C
:1006600090E061E070E00E94B90006C08EE090E08A
:1006700060E070E00E94B900C1FF07C08FE090E029
:1006800061E070E00E94B90006C08FE090E060E099
:1006900070E00E94B900C2FF07C080E190E061E015
:1006A00070E00E94B90006C080E190E060E070E078
:1006B0000E94B900C3FF07C081E190E061E070E0F3
:1006C0000E94B90006C081E190E060E070E00E9405
:1006D000B900DF91CF9108951F93182F8AE090E021
:1006E00060E070E00E94B900812F0E9428038CE036
:1006F00090E061E070E00E94B9008CEC9AE0019714
:10070000F1F700C000008CE090E060E070E00E9433
:10071000B9008CEC9AE00197F1F700C000001F913E
:10072000089580E00E946C0381E00E946C030895AC
:100730001F93813061F4162F1058812F82958F708E
:100740000E946C03812F8F700E946C030DC0823059
:1007500059F4162F1054812F82958F700E946C03CC
:10076000812F8F700E946C031F91089580E00E947A
:1007700028038FEF97ED0197F1F700C0000083E0A9
:100780000E946C038FEF95E30197F1F700C0000022
:1007900083E00E946C038CEC96E70197F1F700C0B0
:1007A000000083E00E946C0382E00E946C0382E000
:1007B0000E946C0388E00E946C0380E00E946C033E
:1007C0008CE00E946C0380E00E946C0386E00E9433
:1007D0006C0308951F93182F8AE090E061E070E0A9
:1007E0000E94B900812F82958F700E9428038CE0AF
:1007F00090E061E070E00E94B9008CEC9AE0019713
:10080000F1F700C000008CE090E060E070E00E9432
:10081000B9008CEC9AE00197F1F700C00000812F3D
:100820008F700E9428038CE090E061E070E00E94ED
:10083000B9008CEC9AE00197F1F700C000008CE061
:1008400090E060E070E00E94B9008CEC9AE00197C3
:10085000F1F700C000001F910895CF93DF93EC01E2
:100860008881882331F021960E94EA0389918823A8
:10087000D9F7DF91CF91089581E00E946C038CE05D
:100880000E946C03089581E00E946C0388E00E943E
:100890006C0308955D9BFECF8CB90895CF93DF93D1
:1008A000EC018881882331F021960E944A048991C5
:1008B0008823D9F7DF91CF9108952F923F924F92DD
:1008C0005F926F927F928F929F92AF92BF92CF92E0
:1008D000DF92EF92FF920F931F93DF93CF9300D09D
:1008E00000D000D0CDB7DEB78FEF87BB84BB0E94AE
:1008F000B60381E061E00E94980380E690E00E94E8
:100900002D048FEF9FEDA0E181509040A040E1F7D2
:1009100000C0000087E490E00E9449008CE690E06F
:100920000E9495008DE00E948F008AE00E948F0057
:100930008CE790E00E9495008DE00E948F008AE095
:100940000E948F0089E890E00E9495008DE00E944F
:100950008F008AE00E948F0089E990E00E94950054
:100960008DE00E948F008AE00E948F0081EB90E072
:100970000E9495008DE00E948F008AE00E948F0007
:1009800080EC90E00E9495008DE00E948F008AE04C
:100990000E948F0080ED90E00E9495008DE00E9403
:1009A0008F008AE00E948F008FED90E00E949500FA
:1009B0008DE00E948F008AE00E948F008CEE90E014
:1009C0000E9495008DE00E948F008AE00E948F00B7
:1009D0008E010F5F1F4F0F2EF7E5CF2EF1E0DF2EB8
:1009E000F02D0F2EF8EF8F2EF0E09F2EF02D0F2E12
:1009F000FEEFAF2EF0E0BF2EF02D0F2EFAE0EF2E1F
:100A0000F02D0F2EF3E06F2EF1E07F2EF02D0F2E44
:100A1000F2E14F2EF1E05F2EF02D0F2EF8E12F2E98
:100A2000F1E03F2EF02D0E949200F82E0E949103DB
:100A300081E061E00E9498038F2D90E0B8014AE0C8
:100A400050E00E94D306C8010E94B5060E942D0402
:100A50008FEF9FE5A3E081509040A040E1F700C0F8
:100A6000000082E061E00E94980300D000D000D036
:100A7000EDB7FEB73196ADB7BEB71296DC92CE9207
:100A8000119793828282F48215820E94FC068DB7B0
:100A90009EB706960FB6F8949EBF0FBE8DBFC501D8
:100AA0000E942D0482E065E00E9498038F2D90E063
:100AB0000E942D049F2D963419F0963609F04DC0F2
:100AC000E8BAC3010E9495000E94910381E061E0B1
:100AD0000E949803C3010E942D0482E061E00E94FD
:100AE000980300D000D000D0EDB7FEB73196ADB777
:100AF000BEB71296DC92CE92119753824282F48254
:100B000015820E94FC068DB79EB706960FB6F89424
:100B10009EBF0FBE8DBFC5010E942D0482E065E01F
:100B20000E9498038C2D0E94EA0382E067E00E94F5
:100B30009803C6010E942D0482E06E2D0E94980346
:100B40008F2D90E0B8014AE050E00E94D306C80122
:100B50000E94B5060E942D0401C19F2D923411F010
:100B6000923689F585E088BBC1010E9495000E94FC
:100B7000910381E061E00E9498038F2D90E0B8011D
:100B80004AE050E00E94D306C8010E94B5068F2DAE
:100B900090E00E942D0481E06E2D0E9498038F2D1D
:100BA0000E94EA038FEF9FE5A3E081509040A040B0
:100BB000E1F700C0000082E061E00E949803C101FB
:100BC0000E942D04CBC09F2D9C3419F09C3609F057
:100BD00040C082E088BB88E291E00E9495000E94BC
:100BE000B60382E061E00E94980300D000D000D0FC
:100BF000EDB7FEB73196ADB7BEB71296DC92CE9286
:100C0000119753824282F48215820E94FC068DB7AE
:100C10009EB706960FB6F8949EBF0FBE8DBFC50156
:100C20000E942D0482E065E00E9498038C2D0E94B2
:100C3000EA0382E067E00E949803C6010E942D0447
:100C400081E061E00E94980388E291E00E942D0417
:100C500085C09F2D923511F0923751F5A8E0A8BBC1
:100C600084E391E00E9495000E94B60381E061E078
:100C70000E9498038F2D90E0B8014AE050E00E9456
:100C8000D306C8010E94B5060E942D048FEF9FE590
:100C9000A3E081509040A040E1F700C0000082E056
:100CA00061E00E94980384E391E00E942D0456C005
:100CB0009F2D933511F0933751F5AFE0A8BB81E438
:100CC00091E00E9495000E94B60381E061E00E94DD
:100CD00098038F2D90E0B8014AE050E00E94D306BF
:100CE000C8010E94B5060E942D048FEF9FE5A3E086
:100CF00081509040A040E1F700C0000082E061E038
:100D00000E94980381E491E00E942D0427C089E4A9
:100D100091E00E9495000E94B60381E061E00E948C
:100D200098038F2D90E0B8014AE050E00E94D3066E
:100D3000C8010E94B5060E942D048FEF9FE5A3E035
:100D400081509040A040E1F700C0000082E061E0E7
:100D50000E94980389E491E00E942D048DE00E9496
:100D60008F008E2D0E948F005ECEFC018827992770
:100D7000E89421912032E9F3293010F02E30C8F3A5
:100D80002B3241F02D3239F4689404C00E94F406ED
:100D9000820F911D219120532A30C0F31EF49095AB
:100DA00081959F4F0895FB019F01E8944230C4F064
:100DB0004532B4F44A3029F497FB1EF4909581959E
:100DC0009F4F642F77270E94B609805D8A330CF00D
:100DD000895D8193CB010097A1F716F45DE25193F1
:100DE0001082C9010C941C097AE0979F902D879F6F
:100DF000802D910D11240895AEE0B0E0E2E0F7E01F
:100E00000C94D8090D891E8986E08C831A83098386
:100E10008FEF9FE79E838D839E01275E3F4FCE011C
:100E200001966F89788DA9010E941F07EF81F885CF
:100E3000E00FF11F10822E96E4E00C94F409ACE070
:100E4000B0E0E5E2F7E00C94CA096C011B018A01ED
:100E5000FC0117821682838181FFD1C12E01089483
:100E6000411C511CF6019381F10193FD859193FF83
:100E700081911F01882309F4BEC1853239F493FDA5
:100E8000859193FF81911F01853229F490E0B6018D
:100E90000E942C09E7CFEE24FF2420E02032B0F49A
:100EA0008B3269F08C3228F4803251F0833271F445
:100EB0000BC08D3239F0803349F421602CC02260A0
:100EC000246029C0286027C0206125C027FD2CC0D0
:100ED000382F30533A3098F426FF08C08E2D880FF3
:100EE000E82EEE0CEE0CE80EE30E15C08F2D880FE9
:100EF000F82EFF0CFF0CF80EF30E20620CC08E32A1
:100F000021F426FD78C1206406C08C3611F42068D7
:100F100002C0883649F4F10193FD859193FF8191D8
:100F20001F01882309F0BACF982F9554933018F0F9
:100F30009052933028F40C5F1F4FFFE3F9830DC0EC
:100F4000833631F0833771F0833509F060C022C0F9
:100F5000F801808189830E5F1F4F420171E0A72E47
:100F6000B12C16C062E0662E712C600E711EF80165
:100F70008080918026FF03C06E2D70E002C06FEF6D
:100F80007FEFC4012C870E9411095C0183012C852D
:100F90002F7717C052E0652E712C600E711EF8017C
:100FA0008080918026FF03C06E2D70E002C06FEF3D
:100FB0007FEFC4012C870E9406095C012C85206804
:100FC000830123FD20C008C080E290E0B6012C8799
:100FD0000E942C09FA942C858F2D90E0A816B90652
:100FE00098F311C0F40127FD859127FF81914F01EE
:100FF00090E0B6012C870E942C092C85F110FA9400
:101000000894A108B108A114B10461F7F1C08436B5
:1010100011F0893649F527FF08C0F8016081718118
:10102000828193810C5F1F4F09C0F801608171813B
:10103000882777FD8095982F0E5F1F4F4FE6B42EBF
:10104000B22297FF09C090958095709561957F4F6A
:101050008F4F9F4FF0E8BF2AA2012AE030E00E94A4
:101060005809782E741845C0853731F43FEEB32EF9
:10107000B2222AE030E025C099EFB92EB2228F3695
:10108000C1F0803720F4883509F0B5C00DC0803735
:1010900021F0883709F0AFC002C020E1B22AB4FEC7
:1010A0000BC084E0B82A08C0B4FE09C0E6E0BE2A3E
:1010B00006C028E030E005C020E130E002C020E1B9
:1010C00032E0B7FE08C0F8016081718182819381AE
:1010D0000C5F1F4F07C0F8016081718180E090E0D4
:1010E0000E5F1F4FA2010E945809782E7418FFE767
:1010F000BF22B6FE0BC02EEFB2227E1438F4B4FE2F
:1011000007C0B2FC05C08FEEB82202C0A72C01C0F8
:10111000AE2C8B2D90E0B4FE0DC0FE01E70DF11D4D
:101120002081203319F4E9EEBE2209C0A394B2FE57
:1011300006C004C086789070009709F0A3948B2CA9
:101140009924B3FC14C0B0FE0FC0AF1428F4E72CF0
:10115000EF0CEA18AF2C08C0E72C06C080E290E044
:10116000B6010E942C09A394AF14C0F304C0AF14BD
:1011700010F4FA1801C0FF2484FE0FC080E390E051
:10118000B6010E942C0982FE1FC081FE03C088E5C3
:1011900090E010C088E790E00DC0C40186789070A0
:1011A000009791F081FC02C080E201C08BE2B7FCA5
:1011B0008DE290E0B6010E942C0906C080E390E029
:1011C000B6010E942C09EA947E14C0F37A94F201CD
:1011D000E70DF11D808190E0B6010E942C09772077
:1011E000A9F706C080E290E0B6010E942C09FA94AB
:1011F000FF20C1F737CEF6012681378102C02FEFDD
:101200003FEFC9012C96E2E10C94E609FC01059040
:10121000615070400110D8F7809590958E0F9F1FF8
:101220000895FC016150704001900110D8F780953D
:1012300090958E0F9F1F0895DC01FC01672F71911F
:101240007723E1F7329704C07C916D9370836291AC
:10125000AE17BF07C8F308950F931F93CF93DF9383
:101260008C01EB018B8181FF1BC082FF0DC02E81A1
:101270003F818C819D812817390764F4E881F981C9
:101280000193F983E88306C0E885F985802F0995E5
:10129000009731F48E819F8101969F838E8302C0D7
:1012A0000FEF1FEFC801DF91CF911F910F910895AC
:1012B000FA01AA27283051F1203181F1E8946F9387
:1012C0006E7F6E5F7F4F8F4F9F4FAF4FB1E03ED02D
:1012D000B4E03CD0670F781F891F9A1FA11D680FCB
:1012E000791F8A1F911DA11D6A0F711D811D911DFE
:1012F000A11D20D009F468943F912AE0269F112473
:101300003019305D3193DEF6CF010895462F4770D6
:10131000405D4193B3E00FD0C9F7F6CF462F4F7031
:10132000405D4A3318F0495D31FD4052419302D08F
:10133000A9F7EACFB4E0A695979587957795679535
:10134000BA95C9F700976105710508959B01AC0135
:101350000A2E06945795479537952795BA95C9F75C
:10136000620F731F841F951FA01D0895AA1BBB1B2E
:1013700051E107C0AA1FBB1FA617B70710F0A61B95
:10138000B70B881F991F5A95A9F780959095BC01B6
:10139000CD0108952F923F924F925F926F927F926C
:1013A0008F929F92AF92BF92CF92DF92EF92FF9275
:1013B0000F931F93CF93DF93CDB7DEB7CA1BDB0B21
:1013C0000FB6F894DEBF0FBECDBF09942A883988C6
:1013D00048885F846E847D848C849B84AA84B984CD
:1013E000C884DF80EE80FD800C811B81AA81B981D9
:1013F000CE0FD11D0FB6F894DEBF0FBECDBFED01ED
:061400000895F894FFCFEF
:101406004C43445F496E697469616C0041424C61AA
:101416006220536F6C7574696F6E73007777772EE1
:1014260061626C61622E696E00456E746572205051
:10143600617373776F72643A00436F6E74726F6C88
:10144600204B65797320666F7220526F626F743A13
:101456000046206F7220663D466F727761726400A7
:1014660042206F7220623D4261636B776172640055
:101476004C206F72206C20663D204C6566740052CD
:10148600206F7220723D52696768740053206F7234
:1014960020733D53746F700069733A25730052656B
:1014A600633A004D6F76696E6720466F7277617298
:1014B600640069733A2563004D6F76696E67204252
:1014C60061636B77617264004D6F76696E67204C5D
:1014D600656674004D6F76696E6720526967687439
:1014E6000053746F7070656400496E76616C696450
:0614F600204B65790000A7
:00000001FF
